{
  "contractName": "EventTickets",
  "abi": [
    {
      "inputs": [
        {
          "internalType": "string",
          "name": "description",
          "type": "string"
        },
        {
          "internalType": "string",
          "name": "website",
          "type": "string"
        },
        {
          "internalType": "uint256",
          "name": "numberOfTicketsForSale",
          "type": "uint256"
        }
      ],
      "payable": false,
      "stateMutability": "nonpayable",
      "type": "constructor"
    },
    {
      "anonymous": false,
      "inputs": [
        {
          "indexed": false,
          "internalType": "address",
          "name": "_purchaser",
          "type": "address"
        },
        {
          "indexed": false,
          "internalType": "uint256",
          "name": "_numberOfTickets",
          "type": "uint256"
        }
      ],
      "name": "LogBuyTickets",
      "type": "event"
    },
    {
      "anonymous": false,
      "inputs": [
        {
          "indexed": false,
          "internalType": "address",
          "name": "_owner",
          "type": "address"
        },
        {
          "indexed": false,
          "internalType": "uint256",
          "name": "_balanceTransfered",
          "type": "uint256"
        }
      ],
      "name": "LogEndSale",
      "type": "event"
    },
    {
      "anonymous": false,
      "inputs": [
        {
          "indexed": false,
          "internalType": "address",
          "name": "_refundRequester",
          "type": "address"
        },
        {
          "indexed": false,
          "internalType": "uint256",
          "name": "_numberOfTickets",
          "type": "uint256"
        }
      ],
      "name": "LogGetRefund",
      "type": "event"
    },
    {
      "constant": true,
      "inputs": [
        {
          "internalType": "address",
          "name": "",
          "type": "address"
        }
      ],
      "name": "buyers",
      "outputs": [
        {
          "internalType": "uint256",
          "name": "",
          "type": "uint256"
        }
      ],
      "payable": false,
      "stateMutability": "view",
      "type": "function"
    },
    {
      "constant": true,
      "inputs": [],
      "name": "owner",
      "outputs": [
        {
          "internalType": "address payable",
          "name": "",
          "type": "address"
        }
      ],
      "payable": false,
      "stateMutability": "view",
      "type": "function"
    },
    {
      "constant": true,
      "inputs": [],
      "name": "readEvent",
      "outputs": [
        {
          "internalType": "string",
          "name": "description",
          "type": "string"
        },
        {
          "internalType": "string",
          "name": "website",
          "type": "string"
        },
        {
          "internalType": "uint256",
          "name": "totalTickets",
          "type": "uint256"
        },
        {
          "internalType": "uint256",
          "name": "sales",
          "type": "uint256"
        },
        {
          "internalType": "bool",
          "name": "isOpen",
          "type": "bool"
        }
      ],
      "payable": false,
      "stateMutability": "view",
      "type": "function"
    },
    {
      "constant": true,
      "inputs": [
        {
          "internalType": "address",
          "name": "_buyer",
          "type": "address"
        }
      ],
      "name": "getBuyerTicketCount",
      "outputs": [
        {
          "internalType": "uint256",
          "name": "",
          "type": "uint256"
        }
      ],
      "payable": false,
      "stateMutability": "view",
      "type": "function"
    },
    {
      "constant": false,
      "inputs": [
        {
          "internalType": "uint256",
          "name": "_numberOfTickets",
          "type": "uint256"
        }
      ],
      "name": "buyTickets",
      "outputs": [],
      "payable": true,
      "stateMutability": "payable",
      "type": "function"
    },
    {
      "constant": false,
      "inputs": [],
      "name": "getRefund",
      "outputs": [],
      "payable": true,
      "stateMutability": "payable",
      "type": "function"
    },
    {
      "constant": false,
      "inputs": [],
      "name": "endSale",
      "outputs": [],
      "payable": true,
      "stateMutability": "payable",
      "type": "function"
    }
  ],
  "bytecode": "0x6080604052336000806101000a81548173ffffffffffffffffffffffffffffffffffffffff021916908373ffffffffffffffffffffffffffffffffffffffff16021790555060646001553480156200005657600080fd5b5060405162000dd438038062000dd4833981810160405260608110156200007c57600080fd5b81019080805160405193929190846401000000008211156200009d57600080fd5b83820191506020820185811115620000b457600080fd5b8251866001820283011164010000000082111715620000d257600080fd5b8083526020830192505050908051906020019080838360005b8381101562000108578082015181840152602081019050620000eb565b50505050905090810190601f168015620001365780820380516001836020036101000a031916815260200191505b50604052602001805160405193929190846401000000008211156200015a57600080fd5b838201915060208201858111156200017157600080fd5b82518660018202830111640100000000821117156200018f57600080fd5b8083526020830192505050908051906020019080838360005b83811015620001c5578082015181840152602081019050620001a8565b50505050905090810190601f168015620001f35780820380516001836020036101000a031916815260200191505b50604052602001805190602001909291905050503373ffffffffffffffffffffffffffffffffffffffff166000809054906101000a9050505060008090506000600190506040518060a001604052808681526020018581526020018481526020018381526020018215158152506003600082015181600001908051906020019062000280929190620002e2565b5060208201518160010190805190602001906200029f929190620002e2565b50604082015181600201556060820151816003015560808201518160050160006101000a81548160ff021916908315150217905550905050505050505062000391565b828054600181600116156101000203166002900490600052602060002090601f016020900481019282601f106200032557805160ff191683800117855562000356565b8280016001018555821562000356579182015b828111156200035557825182559160200191906001019062000338565b5b50905062000365919062000369565b5090565b6200038e91905b808211156200038a57600081600090555060010162000370565b5090565b90565b610a3380620003a16000396000f3fe6080604052600436106100705760003560e01c80638da5cb5b1161004e5780638da5cb5b146101c257806397a993aa14610219578063b2d5ae441461027e578063edfb91671461028857610070565b806305aea97c146100755780632f3666371461018a578063380d831b146101b8575b600080fd5b34801561008157600080fd5b5061008a6102ed565b60405180806020018060200186815260200185815260200184151515158152602001838103835288818151815260200191508051906020019080838360005b838110156100e45780820151818401526020810190506100c9565b50505050905090810190601f1680156101115780820380516001836020036101000a031916815260200191505b50838103825287818151815260200191508051906020019080838360005b8381101561014a57808201518184015260208101905061012f565b50505050905090810190601f1680156101775780820380516001836020036101000a031916815260200191505b5097505050505050505060405180910390f35b6101b6600480360360208110156101a057600080fd5b8101908080359060200190929190505050610466565b005b6101c06105d9565b005b3480156101ce57600080fd5b506101d7610763565b604051808273ffffffffffffffffffffffffffffffffffffffff1673ffffffffffffffffffffffffffffffffffffffff16815260200191505060405180910390f35b34801561022557600080fd5b506102686004803603602081101561023c57600080fd5b81019080803573ffffffffffffffffffffffffffffffffffffffff169060200190929190505050610788565b6040518082815260200191505060405180910390f35b6102866107a0565b005b34801561029457600080fd5b506102d7600480360360208110156102ab57600080fd5b81019080803573ffffffffffffffffffffffffffffffffffffffff1690602001909291905050506109b5565b6040518082815260200191505060405180910390f35b6060806000806000600360000160036001016003600201546003800154600360050160009054906101000a900460ff16848054600181600116156101000203166002900480601f0160208091040260200160405190810160405280929190818152602001828054600181600116156101000203166002900480156103b25780601f10610387576101008083540402835291602001916103b2565b820191906000526020600020905b81548152906001019060200180831161039557829003601f168201915b50505050509450838054600181600116156101000203166002900480601f01602080910402602001604051908101604052809291908181526020018280546001816001161561010002031660029004801561044e5780601f106104235761010080835404028352916020019161044e565b820191906000526020600020905b81548152906001019060200180831161043157829003601f168201915b50505050509350945094509450945094509091929394565b60011515600360050160009054906101000a900460ff1615151461048957600080fd5b80600360020154101561049b57600080fd5b60015481023410156104ac57600080fd5b8060036002016000828254039250508190555080600260003373ffffffffffffffffffffffffffffffffffffffff1673ffffffffffffffffffffffffffffffffffffffff168152602001908152602001600020600082825401925050819055508060038001600082825401925050819055503373ffffffffffffffffffffffffffffffffffffffff166108fc600154830234039081150290604051600060405180830381858888f1935050505015801561056a573d6000803e3d6000fd5b507f72240c1be87ee789414e12fc30844d39a55d1eaf3b8741489fe381ad2b6cdd473382604051808373ffffffffffffffffffffffffffffffffffffffff1673ffffffffffffffffffffffffffffffffffffffff1681526020018281526020019250505060405180910390a150565b3373ffffffffffffffffffffffffffffffffffffffff166000809054906101000a900473ffffffffffffffffffffffffffffffffffffffff1673ffffffffffffffffffffffffffffffffffffffff161461063257600080fd5b6000600360050160006101000a81548160ff02191690831515021790555060003073ffffffffffffffffffffffffffffffffffffffff163190506000809054906101000a900473ffffffffffffffffffffffffffffffffffffffff1673ffffffffffffffffffffffffffffffffffffffff166108fc829081150290604051600060405180830381858888f193505050501580156106d3573d6000803e3d6000fd5b507f21e7b2f8578199ba3904a63b7cd799784c8cadde57dde563a7de95ef792e256c6000809054906101000a900473ffffffffffffffffffffffffffffffffffffffff1682604051808373ffffffffffffffffffffffffffffffffffffffff1673ffffffffffffffffffffffffffffffffffffffff1681526020018281526020019250505060405180910390a150565b6000809054906101000a900473ffffffffffffffffffffffffffffffffffffffff1681565b60026020528060005260406000206000915090505481565b6000600260003373ffffffffffffffffffffffffffffffffffffffff1673ffffffffffffffffffffffffffffffffffffffff16815260200190815260200160002054116107ec57600080fd5b600260003373ffffffffffffffffffffffffffffffffffffffff1673ffffffffffffffffffffffffffffffffffffffff1681526020019081526020016000205460038001540360038001819055503373ffffffffffffffffffffffffffffffffffffffff166108fc600154600260003373ffffffffffffffffffffffffffffffffffffffff1673ffffffffffffffffffffffffffffffffffffffff16815260200190815260200160002054029081150290604051600060405180830381858888f193505050501580156108c3573d6000803e3d6000fd5b506000600260003373ffffffffffffffffffffffffffffffffffffffff1673ffffffffffffffffffffffffffffffffffffffff168152602001908152602001600020819055507f492e1d962a477f77890c7cfdb563d7ddc58fee6505741794fa5700ada3c1604133600260003373ffffffffffffffffffffffffffffffffffffffff1673ffffffffffffffffffffffffffffffffffffffff16815260200190815260200160002054604051808373ffffffffffffffffffffffffffffffffffffffff1673ffffffffffffffffffffffffffffffffffffffff1681526020018281526020019250505060405180910390a1565b6000600260008373ffffffffffffffffffffffffffffffffffffffff1673ffffffffffffffffffffffffffffffffffffffff16815260200190815260200160002054905091905056fea265627a7a72315820d73739e4731a333f5741917cc3f1e1a46383422b298b2667c29320878eb79ffc64736f6c634300050c0032",
  "source": "pragma solidity ^0.5.0;\n\n    /*\n        The EventTickets contract keeps track of the details and ticket sales of one event.\n     */\n\ncontract EventTickets {\n\n    /*\n        Create a public state variable called owner.\n        Use the appropriate keyword to create an associated getter function.\n        Use the appropriate keyword to allow ether transfers.\n     */\n    address payable public owner = msg.sender;\n\n    uint256 TICKET_PRICE = 100 wei;\n\n    /*\n        Create a struct called \"Event\".\n        The struct has 6 fields: description, website (URL), totalTickets, sales, buyers, and isOpen.\n        Choose the appropriate variable type for each field.\n        The \"buyers\" field should keep track of addresses and how many tickets each buyer purchases.\n    */\n\n    struct Event {\n        string description; \n        string website;\n        uint totalTickets;\n        uint sales;\n        mapping(address => uint) buyers;\n        bool isOpen;\n    }\n\n    mapping(address => uint) public buyers;\n\n    Event myEvent;\n\n    /*\n        Define 3 logging events.\n        LogBuyTickets should provide information about the purchaser and the number of tickets purchased.\n        LogGetRefund should provide information about the refund requester and the number of tickets refunded.\n        LogEndSale should provide infromation about the contract owner and the balance transferred to them.\n    */\n    event LogBuyTickets(address _purchaser,uint _numberOfTickets);\n    event LogGetRefund(address _refundRequester, uint _numberOfTickets);\n    event LogEndSale(address _owner, uint _balanceTransfered);\n    /*\n        Create a modifier that throws an error if the msg.sender is not the owner.\n    */\n    modifier isOwner {\n        require(owner == msg.sender);\n        _;\n    }\n\n    /*\n        Define a constructor.\n        The constructor takes 3 arguments, the description, the URL and the number of tickets for sale.\n        Set the owner to the creator of the contract.\n        Set the appropriate myEvent details.\n    */\n    constructor(string memory description, string memory website, uint numberOfTicketsForSale) public {\n        owner  == msg.sender;\n        uint256 sales = 0;\n        bool isOpen;\n        isOpen = true;\n       myEvent = Event(description, website, numberOfTicketsForSale, sales, isOpen);\n    }\n    /*\n        Define a function called readEvent() that returns the event details.\n        This function does not modify state, add the appropriate keyword.\n        The returned details should be called description, website, uint totalTickets, uint sales, bool isOpen in that order.\n    */\n    function readEvent()\n        public view\n        returns(string memory description, string memory website, uint totalTickets, uint sales, bool isOpen)\n    {\n        return (myEvent.description, myEvent.website, myEvent.totalTickets, myEvent.sales, myEvent.isOpen);\n    }\n\n    /*\n        Define a function called getBuyerTicketCount().\n        This function takes 1 argument, an address and\n        returns the number of tickets that address has purchased.\n    */\n    function getBuyerTicketCount(address _buyer) public view returns(uint){\n        return buyers[_buyer];\n    }\n    /*\n        Define a function called buyTickets().\n        This function allows someone to purchase tickets for the event.\n        This function takes one argument, the number of tickets to be purchased.\n        This function can accept Ether.\n        Be sure to check:\n            - That the event isOpen\n            - That the transaction value is sufficient for the number of tickets purchased\n            - That there are enough tickets in stock\n        Then:\n            - add the appropriate number of tickets to the purchasers count\n            - account for the purchase in the remaining number of available tickets\n            - refund any surplus value sent with the transaction\n            - emit the appropriate event\n    */\n    function buyTickets(uint _numberOfTickets) public payable {\n        require(myEvent.isOpen == true);\n        require(myEvent.totalTickets >= _numberOfTickets);\n        require(msg.value >= _numberOfTickets * TICKET_PRICE);\n        \n        myEvent.totalTickets -= _numberOfTickets;\n        buyers[msg.sender] += _numberOfTickets;\n        myEvent.sales += _numberOfTickets;  \n        msg.sender.transfer(msg.value - (_numberOfTickets * TICKET_PRICE));\n        emit LogBuyTickets(msg.sender, _numberOfTickets);\n    }\n    /*\n        Define a function called getRefund().\n        This function allows someone to get a refund for tickets for the account they purchased from.\n        TODO:\n            - Check that the requester has purchased tickets.\n            - Make sure the refunded tickets go back into the pool of available tickets.\n            - Transfer the appropriate amount to the refund requester.\n            - Emit the appropriate event.\n    */\n    function getRefund() public payable {\n        require(buyers[msg.sender] > 0);\n        myEvent.sales = myEvent.sales - buyers[msg.sender];\n        msg.sender.transfer(buyers[msg.sender] * TICKET_PRICE);\n        buyers[msg.sender] = 0;\n        emit LogGetRefund(msg.sender, buyers[msg.sender]);\n    }\n\n    // more mapping difficulties.. how to access or address this issue? \n\n    /*\n        Define a function called endSale().\n        This function will close the ticket sales.\n        This function can only be called by the contract owner.\n        TODO:\n            - close the event\n            - transfer the contract balance to the owner\n            - emit the appropriate event\n    */\n    function endSale() public payable isOwner {\n        myEvent.isOpen = false;\n        //transfer the contract balance to the owner\n        uint _balanceTransfered = address(this).balance;\n        owner.transfer(_balanceTransfered);\n        emit LogEndSale(owner, _balanceTransfered);\n    }\n}\n",
  "sourcePath": "/Users/maxgrok/Documents/consensys-academy/event-ticket-exercise-maxgrok/contracts/EventTickets.sol",
  "compiler": {
    "name": "solc",
    "version": "0.5.12+commit.7709ece9.Emscripten.clang"
  },
  "schemaVersion": "3.0.19",
  "updatedAt": "2020-01-17T21:38:18.836Z",
  "networkType": "ethereum",
  "devdoc": {
    "methods": {}
  },
  "userdoc": {
    "methods": {}
  }
}